:100000000C942A000C943C000C943C000C943C0092
:100010000C943C000C943C000C9483020C9434022D
:100020000C943C000C9410030C943C000C94DD01E7
:100030000C943C000C943C000C943C000C943C0050
:100040000C943C000C943C000C943C000C943C0040
:100050000C943C0011241FBECFE5D8E0DEBFCDBF1D
:1000600020E0A0E6B0E001C01D92A03AB207E1F79F
:100070000E94F9000C944F030C9400004423B9F142
:10008000413009F06BC0813089F028F08230C9F02E
:10009000833011F108952AB381E090E002C0880F07
:1000A000991F6A95E2F7822B8ABB089527B381E0F6
:1000B00090E002C0880F991F6A95E2F7822B87BBF8
:1000C000089524B381E090E002C0880F991F6A95DB
:1000D000E2F7822B84BB089521B381E090E002C057
:1000E000880F991F6A95E2F7822B81BB08958130B2
:1000F00091F028F08230D9F0833029F108952AB3A5
:1001000081E090E002C0880F991F6A95E2F7809520
:1001100082238ABB089527B381E090E002C0880F54
:10012000991F6A95E2F78095822387BB089524B3CF
:1001300081E090E002C0880F991F6A95E2F78095F0
:10014000822384BB089521B381E090E002C0880F30
:10015000991F6A95E2F78095822381BB08958130CB
:1001600089F028F08230C9F0833011F108952BB363
:1001700081E090E002C0880F991F6A95E2F782271C
:100180008BBB089528B381E090E002C0880F991FCF
:100190006A95E2F7822788BB089525B381E090E055
:1001A00002C0880F991F6A95E2F7822785BB0895E0
:1001B00022B381E090E002C0880F991F6A95E2F7B0
:1001C000822782BB089562E082E00E94AF0008951A
:1001D00067E082E00E94AF00089541E062E082E0C3
:1001E0000E943E00089541E067E082E00E943E00E8
:1001F00008950E94ED000E94F3000E942F012AE062
:1002000030E041E050E068EE73E083EE90E00E9461
:100210003E0124E130E042E050E064EF71E088EE1E
:1002200090E00E943E010E945701FFCFEAE8F0E013
:1002300020EA30E042E0828181110CC08185928504
:10024000019792878187892B29F442838381948146
:10025000928781873B96E217F30769F708950E941A
:100260008B0161E070E080E090E00E94980186E1FF
:1002700091E00E94D8010E9494010895D901309123
:1002800061002BE0329FF0011124E657FF4F91836C
:1002900080837483638356834583B087A783728783
:1002A000618782E082833F5F309361000895F12C83
:1002B0000AE810E0E12CCC24C3940F2EFBE0DF2EE3
:1002C000F02D80916000F8019281923049F42581EF
:1002D0003681482F50E02417350710F0822FFE2C6E
:1002E000F8019585923049F420893189482F50E0F2
:1002F0002417350710F0822FFC2C80936000DF9CC0
:10030000E0011124C657DF4FE881F98109951A826F
:10031000E0926000D6CF83B783BF89B7816089BF81
:100320008FB780688FBF089583B7856083BF0895B6
:100330000F931F939B01AC01A8EEB3E00E9444030E
:100340008B019C010F2EFEE036952795179507959A
:10035000FA95D1F7F02D009381001093820020933D
:10036000830030938400DC01CB01689415F8B695C6
:10037000A795979587951694D1F7682F6195609307
:10038000850062BF8091810090918200A0918300DE
:10039000B09184000196A11DB11D809381009093BE
:1003A0008200A0938300B09384001F910F91089561
:1003B000909389008093880008951F920F920FB642
:1003C0000F9211242F933F934F935F936F937F93DB
:1003D0008F939F93AF93BF93EF93FF9380916600AA
:1003E00090916700A0916800B09169000196A11DED
:1003F000B11D8093660090936700A0936800B0934E
:100400006900409181005091820060918300709159
:10041000840084179507A607B707A9F48091850083
:1004200082BF1092660010926700109268001092CE
:100430006900E0918800F09189000995E0918600BB
:10044000F09187000995FF91EF91BF91AF919F9136
:100450008F917F916F915F914F913F912F910F906D
:100460000FBE0F901F9018951F920F920FB60F920C
:1004700011242F933F934F935F936F937F938F93A9
:100480009F93AF93BF93EF93FF93809162009091FE
:100490006300A0916400B09165000196A11DB11D9B
:1004A0008093620090936300A0936400B093650012
:1004B00040917B0050917C0060917D0070917E00A6
:1004C00084179507A607B70769F410926200109287
:1004D00063001092640010926500E0917F00F0913B
:1004E00080000995FF91EF91BF91AF919F918F91FE
:1004F0007F916F915F914F913F912F910F900FBE20
:100500000F901F9018951F920F920FB60F92112403
:100510002F933F934F935F936F937F938F939F930B
:10052000AF93BF93EF93FF9380916A008F5F8093A7
:100530006A0080916A008130C1F486B597B5A0E069
:10054000B0E08093730090937400A0937500B09313
:100550007600109277001092780010927900109235
:100560007A008EB58F7B8EBD4AC080916A00823042
:1005700001F5E6B5F7B5209177003091780040910C
:10058000790050917A00AFEFBFEF0E944403DC0185
:10059000CB018E0F9F1FA11DB11D80936F00909303
:1005A0007000A0937100B09372008EB580648EBD10
:1005B00026C080916A00833011F5E6B5F7B5209129
:1005C0007700309178004091790050917A00AFEF38
:1005D000BFEF0E944403DC01CB018E0F9F1FA11DC2
:1005E000B11D80936B0090936C00A0936D00B0934D
:1005F0006E008EB58F7B8EBD89B78F7D89BFFF91D1
:10060000EF91BF91AF919F918F917F916F915F918A
:100610004F913F912F910F900FBE0F901F90189503
:100620001F920F920FB60F9211248F939F93AF9347
:10063000BF938091770090917800A0917900B0915C
:100640007A000196A11DB11D8093770090937800E8
:10065000A0937900B0937A00BF91AF919F918F9151
:100660000F900FBE0F901F901895A29FB001B39FDF
:10067000C001A39F700D811D1124911DB29F700DAB
:10068000811D1124911D08950E943503A59F900D91
:10069000B49F900DA49F800D911D11240895F8948E
:0206A000FFCF8A
:00000001FF
